{"abi":[{"inputs":[{"internalType":"address","name":"_vrfCoordinator","type":"address"},{"internalType":"address","name":"_linkTokenAddress","type":"address"},{"internalType":"uint256","name":"_linkFee","type":"uint256"},{"internalType":"bytes32","name":"_VRFKeyHash","type":"bytes32"}],"stateMutability":"nonpayable","type":"constructor","name":"constructor"},{"anonymous":false,"inputs":[{"indexed":true,"internalType":"address","name":"previousOwner","type":"address"},{"indexed":true,"internalType":"address","name":"newOwner","type":"address"}],"name":"OwnershipTransferred","type":"event"},{"anonymous":false,"inputs":[{"indexed":false,"internalType":"bytes32","name":"requestId","type":"bytes32"}],"name":"RequestRandomness","type":"event"},{"anonymous":false,"inputs":[{"indexed":false,"internalType":"uint256","name":"raffleId","type":"uint256"},{"indexed":false,"internalType":"address payable","name":"winner","type":"address"}],"name":"WinnerChosen","type":"event"},{"inputs":[{"internalType":"uint256","name":"raffleId","type":"uint256"},{"internalType":"uint256","name":"_ticketCount","type":"uint256"}],"name":"BuyTickets","outputs":[],"stateMutability":"payable","type":"function"},{"inputs":[{"internalType":"uint256","name":"_id","type":"uint256"}],"name":"ClaimRaffle","outputs":[],"stateMutability":"nonpayable","type":"function"},{"inputs":[],"name":"CollectChange","outputs":[{"internalType":"uint256","name":"","type":"uint256"}],"stateMutability":"nonpayable","type":"function"},{"inputs":[{"internalType":"string","name":"_raffleName","type":"string"},{"internalType":"uint256","name":"_ticketPrice","type":"uint256"},{"internalType":"uint256","name":"_raffleLength","type":"uint256"}],"name":"CreateRaffle","outputs":[{"internalType":"uint256","name":"raffleId","type":"uint256"}],"stateMutability":"nonpayable","type":"function"},{"inputs":[],"name":"GetRaffleCount","outputs":[{"internalType":"uint256","name":"","type":"uint256"}],"stateMutability":"view","type":"function"},{"inputs":[{"internalType":"uint256","name":"_id","type":"uint256"}],"name":"GetRaffleInfo","outputs":[{"internalType":"string","name":"name","type":"string"},{"internalType":"address payable","name":"beneficiary","type":"address"},{"internalType":"address payable","name":"winner","type":"address"},{"internalType":"uint256","name":"startTime","type":"uint256"},{"internalType":"uint256","name":"endTime","type":"uint256"}],"stateMutability":"view","type":"function"},{"inputs":[{"internalType":"uint256","name":"_id","type":"uint256"}],"name":"GetRaffleTicketInfo","outputs":[{"internalType":"string","name":"name","type":"string"},{"internalType":"uint256","name":"startTime","type":"uint256"},{"internalType":"uint256","name":"endTime","type":"uint256"},{"internalType":"uint256","name":"ticketCount","type":"uint256"},{"internalType":"uint256","name":"ticketPrice","type":"uint256"}],"stateMutability":"view","type":"function"},{"inputs":[],"name":"RaffleCount","outputs":[{"internalType":"uint256","name":"_value","type":"uint256"}],"stateMutability":"view","type":"function"},{"inputs":[{"internalType":"uint256","name":"","type":"uint256"}],"name":"Raffles","outputs":[{"internalType":"uint256","name":"id","type":"uint256"},{"internalType":"string","name":"name","type":"string"},{"internalType":"uint256","name":"ticketCount","type":"uint256"},{"internalType":"uint256","name":"ticketPrice","type":"uint256"},{"internalType":"address payable","name":"beneficiary","type":"address"},{"internalType":"address payable","name":"winner","type":"address"},{"internalType":"uint256","name":"startTime","type":"uint256"},{"internalType":"uint256","name":"endTime","type":"uint256"},{"internalType":"enum CharityRaffle.RaffleState","name":"state","type":"uint8"}],"stateMutability":"view","type":"function"},{"inputs":[],"name":"VRFKeyHash","outputs":[{"internalType":"bytes32","name":"","type":"bytes32"}],"stateMutability":"view","type":"function"},{"inputs":[{"internalType":"bytes32","name":"","type":"bytes32"}],"name":"VRFRequestIdTORaffleId","outputs":[{"internalType":"uint256","name":"","type":"uint256"}],"stateMutability":"view","type":"function"},{"inputs":[],"name":"change","outputs":[{"internalType":"uint256","name":"","type":"uint256"}],"stateMutability":"view","type":"function"},{"inputs":[],"name":"expirationPeriod","outputs":[{"internalType":"uint256","name":"","type":"uint256"}],"stateMutability":"view","type":"function"},{"inputs":[],"name":"linkFee","outputs":[{"internalType":"uint256","name":"","type":"uint256"}],"stateMutability":"view","type":"function"},{"inputs":[],"name":"linkTokenAddress","outputs":[{"internalType":"address","name":"","type":"address"}],"stateMutability":"view","type":"function"},{"inputs":[],"name":"owner","outputs":[{"internalType":"address","name":"","type":"address"}],"stateMutability":"view","type":"function"},{"inputs":[{"internalType":"bytes32","name":"requestId","type":"bytes32"},{"internalType":"uint256","name":"randomness","type":"uint256"}],"name":"rawFulfillRandomness","outputs":[],"stateMutability":"nonpayable","type":"function"},{"inputs":[],"name":"renounceOwnership","outputs":[],"stateMutability":"nonpayable","type":"function"},{"inputs":[{"internalType":"address","name":"newOwner","type":"address"}],"name":"transferOwnership","outputs":[],"stateMutability":"nonpayable","type":"function"}],"bytecode":"60c060405260006008553480156200001657600080fd5b50604051620016fb380380620016fb8339810160408190526200003991620000ee565b8383620000463362000081565b6001600160a01b0391821660a0528116608052600392909255600455600280546001600160a01b031916929091169190911790555062000136565b600080546001600160a01b038381166001600160a01b0319831681178455604051919092169283917f8be0079c531659141344cd1fd0a4f28419497f9722a3daafe3b4186f6b6457e09190a35050565b80516001600160a01b0381168114620000e957600080fd5b919050565b600080600080608085870312156200010557600080fd5b6200011085620000d1565b93506200012060208601620000d1565b6040860151606090960151949790965092505050565b60805160a05161159862000163600039600081816107560152610f7601526000610f4701526115986000f3fe6080604052600436106101145760003560e01c8063715018a6116100a0578063b894ad3311610064578063b894ad33146102fd578063cda3277314610310578063d1d3bde314610330578063ef124faf14610346578063f2fde38b1461036657600080fd5b8063715018a6146102685780638897cad31461027f5780638da5cb5b1461029657806394985ddd146102c8578063b198333c146102e857600080fd5b80632fec9240116100e75780632fec9240146101ba57806332dd45fb146101da5780633803abef1461020b578063533b4c561461022057806357529e6c1461025157600080fd5b806301889611146101195780631d5ccd9b1461014257806327028a84146101775780632ee79ded146101a4575b600080fd5b34801561012557600080fd5b5061012f60035481565b6040519081526020015b60405180910390f35b34801561014e57600080fd5b5061016261015d36600461115f565b610386565b604051610139999897969594939291906111db565b34801561018357600080fd5b5061012f61019236600461115f565b60076020526000908152604090205481565b3480156101b057600080fd5b5061012f60085481565b3480156101c657600080fd5b5061012f6101d5366004611274565b610467565b3480156101e657600080fd5b506101fa6101f536600461115f565b61050e565b604051610139959493929190611338565b34801561021757600080fd5b5061012f6105f3565b34801561022c57600080fd5b5061024061023b36600461115f565b6106d1565b604051610139959493929190611378565b34801561025d57600080fd5b5060055461012f9081565b34801561027457600080fd5b5061027d610715565b005b34801561028b57600080fd5b5061012f62093a8081565b3480156102a257600080fd5b506000546001600160a01b03165b6040516001600160a01b039091168152602001610139565b3480156102d457600080fd5b5061027d6102e33660046113af565b61074b565b3480156102f457600080fd5b5061012f6107d1565b61027d61030b3660046113af565b6107e1565b34801561031c57600080fd5b5061027d61032b36600461115f565b6109d2565b34801561033c57600080fd5b5061012f60045481565b34801561035257600080fd5b506002546102b0906001600160a01b031681565b34801561037257600080fd5b5061027d6103813660046113d1565b610c93565b600660205260009081526040902080546001820180549192916103a890611401565b80601f01602080910402602001604051908101604052809291908181526020018280546103d490611401565b80156104215780601f106103f657610100808354040283529160200191610421565b820191906000526020600020905b81548152906001019060200180831161040457829003601f168201915b505050600284015460038501546004860154600587015460068801546007890154600890990154979894979396506001600160a01b039283169550911692909160ff1689565b6000610477600580546001019055565b600061048260055490565b60008181526006602090815260409091208281558751929350916104ae916001840191908901906110c6565b5060006002820155600381018590556004810180546001600160a01b0319163317905542600682018190556104e4908590611452565b600782015560088101805460ff1916905560050180546001600160a01b0319169055949350505050565b600081815260066020819052604082206004810154600582015492820154600783015460019093018054606096958695869586956001600160a01b039182169491909316929190859061056090611401565b80601f016020809104026020016040519081016040528092919081815260200182805461058c90611401565b80156105d95780601f106105ae576101008083540402835291602001916105d9565b820191906000526020600020905b8154815290600101906020018083116105bc57829003601f168201915b505050505094509450945094509450945091939590929450565b600080546001600160a01b031633146106275760405162461bcd60e51b815260040161061e9061146a565b60405180910390fd5b6000600854116106795760405162461bcd60e51b815260206004820152601e60248201527f5468657265206973206e6f206368616e676520746f20636f6c6c656374210000604482015260640161061e565b600854604051339190600081818185875af1925050503d80600081146106bb576040519150601f19603f3d011682016040523d82523d6000602084013e6106c0565b606091505b505060088054600090915591505090565b600081815260066020819052604082209081015460078201546002830154600384015460019094018054606096958695869586959193909290859061056090611401565b6000546001600160a01b0316331461073f5760405162461bcd60e51b815260040161061e9061146a565b6107496000610d2e565b565b336001600160a01b037f000000000000000000000000000000000000000000000000000000000000000016146107c35760405162461bcd60e51b815260206004820152601f60248201527f4f6e6c7920565246436f6f7264696e61746f722063616e2066756c66696c6c00604482015260640161061e565b6107cd8282610d7e565b5050565b60006107dc60055490565b905090565b600082815260066020526040812090600882015460ff166004811115610809576108096111c5565b146108485760405162461bcd60e51b815260206004820152600f60248201526e2930b3333632903737ba1037b832b760891b604482015260640161061e565b8060070154421061088e5760405162461bcd60e51b815260206004820152601060248201526f149859999b19481a5cc818db1bdcd95960821b604482015260640161061e565b600082116108ea5760405162461bcd60e51b815260206004820152602360248201527f5469636b657420636f756e74206d75737420626520677265617465722074686160448201526206e20360ec1b606482015260840161061e565b8181600301546108fa919061149f565b34101561095e5760405162461bcd60e51b815260206004820152602c60248201527f5469636b65742070726963652069732067726561746572207468616e2074686560448201526b08185b5bdd5b9d081cd95b9d60a21b606482015260840161061e565b818160020160008282546109729190611452565b909155505033600090815260098201602052604081208054849290610998908490611452565b909155505060038101546109ad90839061149f565b6109b790346114be565b600860008282546109c89190611452565b9091555050505050565b6000818152600660205260409020600401546001600160a01b03163314610a4d5760405162461bcd60e51b815260206004820152602960248201527f4f6e6c79207468652062656e65666963696172792063616e20636c61696d2074604482015268686520726166666c6560b81b606482015260840161061e565b600081815260066020526040902060070154421015610aae5760405162461bcd60e51b815260206004820152601d60248201527f54686520726166666c6520686173206e6f7420636c6f73656420796574000000604482015260640161061e565b6000818152600660205260409020600701544290610ad09062093a8090611452565b11610b325760405162461bcd60e51b815260206004820152602c60248201527f54686520726166666c6520686173206578706972656420616e642063616e6e6f60448201526b1d0818994818db185a5b595960a21b606482015260840161061e565b6003546002546040516370a0823160e01b81523060048201526001600160a01b03909116906370a0823190602401602060405180830381865afa158015610b7d573d6000803e3d6000fd5b505050506040513d601f19601f82011682018060405250810190610ba191906114d5565b1015610c155760405162461bcd60e51b815260206004820152603c60248201527f54686520636f6e7472616374206e6565647320746f2062652070616964206c6960448201527f6e6b20746f6b656e20746f20636c61696d2074686520726166666c6500000000606482015260840161061e565b6000818152600660205260408120600801805460ff19166002179055600454600354610c419190610f43565b60008181526007602052604090819020849055519091507fe7e9d173875e49599c9dc06ea20fd1d8878525700b2711462f8379cccdc637eb90610c879083815260200190565b60405180910390a15050565b6000546001600160a01b03163314610cbd5760405162461bcd60e51b815260040161061e9061146a565b6001600160a01b038116610d225760405162461bcd60e51b815260206004820152602660248201527f4f776e61626c653a206e6577206f776e657220697320746865207a65726f206160448201526564647265737360d01b606482015260840161061e565b610d2b81610d2e565b50565b600080546001600160a01b038381166001600160a01b0319831681178455604051919092169283917f8be0079c531659141344cd1fd0a4f28419497f9722a3daafe3b4186f6b6457e09190a35050565b600082815260076020526040902054600260008281526006602052604090206008015460ff166004811115610db557610db56111c5565b14610e195760405162461bcd60e51b815260206004820152602e60248201527f54686520726166666c65206973206e6f7420696e207468652053656c6563746960448201526d6e6757696e6e657220737461746560901b606482015260840161061e565b600081815260066020526040812060088101805460ff1916600317905560020154610e4490846114ee565b9050610e586000546001600160a01b031690565b60008381526006602052604090206005810180546001600160a01b0319166001600160a01b0393841617905560048101546002820154600390920154921691610ea1919061149f565b604051600081818185875af1925050503d8060008114610edd576040519150601f19603f3d011682016040523d82523d6000602084013e610ee2565b606091505b5050506000828152600660209081526040918290206005015482518581526001600160a01b03909116918101919091527f3bc05d77c749538b04c637d624a0e50d28a1cf181657405d944d039de39d9651910160405180910390a150505050565b60007f00000000000000000000000000000000000000000000000000000000000000006001600160a01b0316634000aea07f000000000000000000000000000000000000000000000000000000000000000084866000604051602001610fb3929190918252602082015260400190565b6040516020818303038152906040526040518463ffffffff1660e01b8152600401610fe093929190611510565b6020604051808303816000875af1158015610fff573d6000803e3d6000fd5b505050506040513d601f19601f820116820180604052508101906110239190611540565b50600083815260016020818152604080842054815180840189905280830186905230606082015260808082018390528351808303909101815260a0909101909252815191830191909120938790529082905261107e91611452565b6000858152600160205260409020556110be8482604080516020808201949094528082019290925280518083038201815260609092019052805191012090565b949350505050565b8280546110d290611401565b90600052602060002090601f0160209004810192826110f4576000855561113a565b82601f1061110d57805160ff191683800117855561113a565b8280016001018555821561113a579182015b8281111561113a57825182559160200191906001019061111f565b5061114692915061114a565b5090565b5b80821115611146576000815560010161114b565b60006020828403121561117157600080fd5b5035919050565b6000815180845260005b8181101561119e57602081850181015186830182015201611182565b818111156111b0576000602083870101525b50601f01601f19169290920160200192915050565b634e487b7160e01b600052602160045260246000fd5b60006101208b83528060208401526111f58184018c611178565b604084018b9052606084018a90526001600160a01b038981166080860152881660a085015260c0840187905260e084018690529150506005831061124957634e487b7160e01b600052602160045260246000fd5b826101008301529a9950505050505050505050565b634e487b7160e01b600052604160045260246000fd5b60008060006060848603121561128957600080fd5b833567ffffffffffffffff808211156112a157600080fd5b818601915086601f8301126112b557600080fd5b8135818111156112c7576112c761125e565b604051601f8201601f19908116603f011681019083821181831017156112ef576112ef61125e565b8160405282815289602084870101111561130857600080fd5b82602086016020830137600060208483010152809750505050505060208401359150604084013590509250925092565b60a08152600061134b60a0830188611178565b6001600160a01b039687166020840152949095166040820152606081019290925260809091015292915050565b60a08152600061138b60a0830188611178565b90508560208301528460408301528360608301528260808301529695505050505050565b600080604083850312156113c257600080fd5b50508035926020909101359150565b6000602082840312156113e357600080fd5b81356001600160a01b03811681146113fa57600080fd5b9392505050565b600181811c9082168061141557607f821691505b6020821081141561143657634e487b7160e01b600052602260045260246000fd5b50919050565b634e487b7160e01b600052601160045260246000fd5b600082198211156114655761146561143c565b500190565b6020808252818101527f4f776e61626c653a2063616c6c6572206973206e6f7420746865206f776e6572604082015260600190565b60008160001904831182151516156114b9576114b961143c565b500290565b6000828210156114d0576114d061143c565b500390565b6000602082840312156114e757600080fd5b5051919050565b60008261150b57634e487b7160e01b600052601260045260246000fd5b500690565b60018060a01b03841681528260208201526060604082015260006115376060830184611178565b95945050505050565b60006020828403121561155257600080fd5b815180151581146113fa57600080fdfea264697066735822122014362b9e2c06c54f9ea92cb58bab476e18a4f33addba380641f82149858350f064736f6c634300080a0033","bytecodeSha1":"ff44dfcfba464df5eb793ff11b71c63ff28d8b12","compiler":{"evm_version":"istanbul","optimizer":{"enabled":true,"runs":200},"version":"0.8.10+commit.fc410830"},"contractName":"CharityRaffle","language":"Solidity","natspec":{"kind":"dev","methods":{"owner()":{"details":"Returns the address of the current owner."},"renounceOwnership()":{"details":"Leaves the contract without owner. It will not be possible to call `onlyOwner` functions anymore. Can only be called by the current owner. NOTE: Renouncing ownership will leave the contract without an owner, thereby removing any functionality that is only available to the owner."},"transferOwnership(address)":{"details":"Transfers ownership of the contract to a new account (`newOwner`). Can only be called by the current owner."}},"version":1},"opcodes":"PUSH1 0x80 PUSH1 0x40 MSTORE PUSH1 0x4 CALLDATASIZE LT PUSH2 0x114 JUMPI PUSH1 0x0 CALLDATALOAD PUSH1 0xE0 SHR DUP1 PUSH4 0x715018A6 GT PUSH2 0xA0 JUMPI DUP1 PUSH4 0xB894AD33 GT PUSH2 0x64 JUMPI DUP1 PUSH4 0xB894AD33 EQ PUSH2 0x2FD JUMPI DUP1 PUSH4 0xCDA32773 EQ PUSH2 0x310 JUMPI DUP1 PUSH4 0xD1D3BDE3 EQ PUSH2 0x330 JUMPI DUP1 PUSH4 0xEF124FAF EQ PUSH2 0x346 JUMPI DUP1 PUSH4 0xF2FDE38B EQ PUSH2 0x366 JUMPI PUSH1 0x0 DUP1 REVERT JUMPDEST DUP1 PUSH4 0x715018A6 EQ PUSH2 0x268 JUMPI DUP1 PUSH4 0x8897CAD3 EQ PUSH2 0x27F JUMPI DUP1 PUSH4 0x8DA5CB5B EQ PUSH2 0x296 JUMPI DUP1 PUSH4 0x94985DDD EQ PUSH2 0x2C8 JUMPI DUP1 PUSH4 0xB198333C EQ PUSH2 0x2E8 JUMPI PUSH1 0x0 DUP1 REVERT JUMPDEST DUP1 PUSH4 0x2FEC9240 GT PUSH2 0xE7 JUMPI DUP1 PUSH4 0x2FEC9240 EQ PUSH2 0x1BA JUMPI DUP1 PUSH4 0x32DD45FB EQ PUSH2 0x1DA JUMPI DUP1 PUSH4 0x3803ABEF EQ PUSH2 0x20B JUMPI DUP1 PUSH4 0x533B4C56 EQ PUSH2 0x220 JUMPI DUP1 PUSH4 0x57529E6C EQ PUSH2 0x251 JUMPI PUSH1 0x0 DUP1 REVERT JUMPDEST DUP1 PUSH4 0x1889611 EQ PUSH2 0x119 JUMPI DUP1 PUSH4 0x1D5CCD9B EQ PUSH2 0x142 JUMPI DUP1 PUSH4 0x27028A84 EQ PUSH2 0x177 JUMPI DUP1 PUSH4 0x2EE79DED EQ PUSH2 0x1A4 JUMPI JUMPDEST PUSH1 0x0 DUP1 REVERT JUMPDEST CALLVALUE DUP1 ISZERO PUSH2 0x125 JUMPI PUSH1 0x0 DUP1 REVERT JUMPDEST POP PUSH2 0x12F PUSH1 0x3 SLOAD DUP2 JUMP JUMPDEST PUSH1 0x40 MLOAD SWAP1 DUP2 MSTORE PUSH1 0x20 ADD JUMPDEST PUSH1 0x40 MLOAD DUP1 SWAP2 SUB SWAP1 RETURN JUMPDEST CALLVALUE DUP1 ISZERO PUSH2 0x14E JUMPI PUSH1 0x0 DUP1 REVERT JUMPDEST POP PUSH2 0x162 PUSH2 0x15D CALLDATASIZE PUSH1 0x4 PUSH2 0x115F JUMP JUMPDEST PUSH2 0x386 JUMP JUMPDEST PUSH1 0x40 MLOAD PUSH2 0x139 SWAP10 SWAP9 SWAP8 SWAP7 SWAP6 SWAP5 SWAP4 SWAP3 SWAP2 SWAP1 PUSH2 0x11DB JUMP JUMPDEST CALLVALUE DUP1 ISZERO PUSH2 0x183 JUMPI PUSH1 0x0 DUP1 REVERT JUMPDEST POP PUSH2 0x12F PUSH2 0x192 CALLDATASIZE PUSH1 0x4 PUSH2 0x115F JUMP JUMPDEST PUSH1 0x7 PUSH1 0x20 MSTORE PUSH1 0x0 SWAP1 DUP2 MSTORE PUSH1 0x40 SWAP1 KECCAK256 SLOAD DUP2 JUMP JUMPDEST CALLVALUE DUP1 ISZERO PUSH2 0x1B0 JUMPI PUSH1 0x0 DUP1 REVERT JUMPDEST POP PUSH2 0x12F PUSH1 0x8 SLOAD DUP2 JUMP JUMPDEST CALLVALUE DUP1 ISZERO PUSH2 0x1C6 JUMPI PUSH1 0x0 DUP1 REVERT JUMPDEST POP PUSH2 0x12F PUSH2 0x1D5 CALLDATASIZE PUSH1 0x4 PUSH2 0x1274 JUMP JUMPDEST PUSH2 0x467 JUMP JUMPDEST CALLVALUE DUP1 ISZERO PUSH2 0x1E6 JUMPI PUSH1 0x0 DUP1 REVERT JUMPDEST POP PUSH2 0x1FA PUSH2 0x1F5 CALLDATASIZE PUSH1 0x4 PUSH2 0x115F JUMP JUMPDEST PUSH2 0x50E JUMP JUMPDEST PUSH1 0x40 MLOAD PUSH2 0x139 SWAP6 SWAP5 SWAP4 SWAP3 SWAP2 SWAP1 PUSH2 0x1338 JUMP JUMPDEST CALLVALUE DUP1 ISZERO PUSH2 0x217 JUMPI PUSH1 0x0 DUP1 REVERT JUMPDEST POP PUSH2 0x12F PUSH2 0x5F3 JUMP JUMPDEST CALLVALUE DUP1 ISZERO PUSH2 0x22C JUMPI PUSH1 0x0 DUP1 REVERT JUMPDEST POP PUSH2 0x240 PUSH2 0x23B CALLDATASIZE PUSH1 0x4 PUSH2 0x115F JUMP JUMPDEST PUSH2 0x6D1 JUMP JUMPDEST PUSH1 0x40 MLOAD PUSH2 0x139 SWAP6 SWAP5 SWAP4 SWAP3 SWAP2 SWAP1 PUSH2 0x1378 JUMP JUMPDEST CALLVALUE DUP1 ISZERO PUSH2 0x25D JUMPI PUSH1 0x0 DUP1 REVERT JUMPDEST POP PUSH1 0x5 SLOAD PUSH2 0x12F SWAP1 DUP2 JUMP JUMPDEST CALLVALUE DUP1 ISZERO PUSH2 0x274 JUMPI PUSH1 0x0 DUP1 REVERT JUMPDEST POP PUSH2 0x27D PUSH2 0x715 JUMP JUMPDEST STOP JUMPDEST CALLVALUE DUP1 ISZERO PUSH2 0x28B JUMPI PUSH1 0x0 DUP1 REVERT JUMPDEST POP PUSH2 0x12F PUSH3 0x93A80 DUP2 JUMP JUMPDEST CALLVALUE DUP1 ISZERO PUSH2 0x2A2 JUMPI PUSH1 0x0 DUP1 REVERT JUMPDEST POP PUSH1 0x0 SLOAD PUSH1 0x1 PUSH1 0x1 PUSH1 0xA0 SHL SUB AND JUMPDEST PUSH1 0x40 MLOAD PUSH1 0x1 PUSH1 0x1 PUSH1 0xA0 SHL SUB SWAP1 SWAP2 AND DUP2 MSTORE PUSH1 0x20 ADD PUSH2 0x139 JUMP JUMPDEST CALLVALUE DUP1 ISZERO PUSH2 0x2D4 JUMPI PUSH1 0x0 DUP1 REVERT JUMPDEST POP PUSH2 0x27D PUSH2 0x2E3 CALLDATASIZE PUSH1 0x4 PUSH2 0x13AF JUMP JUMPDEST PUSH2 0x74B JUMP JUMPDEST CALLVALUE DUP1 ISZERO PUSH2 0x2F4 JUMPI PUSH1 0x0 DUP1 REVERT JUMPDEST POP PUSH2 0x12F PUSH2 0x7D1 JUMP JUMPDEST PUSH2 0x27D PUSH2 0x30B CALLDATASIZE PUSH1 0x4 PUSH2 0x13AF JUMP JUMPDEST PUSH2 0x7E1 JUMP JUMPDEST CALLVALUE DUP1 ISZERO PUSH2 0x31C JUMPI PUSH1 0x0 DUP1 REVERT JUMPDEST POP PUSH2 0x27D PUSH2 0x32B CALLDATASIZE PUSH1 0x4 PUSH2 0x115F JUMP JUMPDEST PUSH2 0x9D2 JUMP JUMPDEST CALLVALUE DUP1 ISZERO PUSH2 0x33C JUMPI PUSH1 0x0 DUP1 REVERT JUMPDEST POP PUSH2 0x12F PUSH1 0x4 SLOAD DUP2 JUMP JUMPDEST CALLVALUE DUP1 ISZERO PUSH2 0x352 JUMPI PUSH1 0x0 DUP1 REVERT JUMPDEST POP PUSH1 0x2 SLOAD PUSH2 0x2B0 SWAP1 PUSH1 0x1 PUSH1 0x1 PUSH1 0xA0 SHL SUB AND DUP2 JUMP JUMPDEST CALLVALUE DUP1 ISZERO PUSH2 0x372 JUMPI PUSH1 0x0 DUP1 REVERT JUMPDEST POP PUSH2 0x27D PUSH2 0x381 CALLDATASIZE PUSH1 0x4 PUSH2 0x13D1 JUMP JUMPDEST PUSH2 0xC93 JUMP JUMPDEST PUSH1 0x6 PUSH1 0x20 MSTORE PUSH1 0x0 SWAP1 DUP2 MSTORE PUSH1 0x40 SWAP1 KECCAK256 DUP1 SLOAD PUSH1 0x1 DUP3 ADD DUP1 SLOAD SWAP2 SWAP3 SWAP2 PUSH2 0x3A8 SWAP1 PUSH2 0x1401 JUMP JUMPDEST DUP1 PUSH1 0x1F ADD PUSH1 0x20 DUP1 SWAP2 DIV MUL PUSH1 0x20 ADD PUSH1 0x40 MLOAD SWAP1 DUP2 ADD PUSH1 0x40 MSTORE DUP1 SWAP3 SWAP2 SWAP1 DUP2 DUP2 MSTORE PUSH1 0x20 ADD DUP3 DUP1 SLOAD PUSH2 0x3D4 SWAP1 PUSH2 0x1401 JUMP JUMPDEST DUP1 ISZERO PUSH2 0x421 JUMPI DUP1 PUSH1 0x1F LT PUSH2 0x3F6 JUMPI PUSH2 0x100 DUP1 DUP4 SLOAD DIV MUL DUP4 MSTORE SWAP2 PUSH1 0x20 ADD SWAP2 PUSH2 0x421 JUMP JUMPDEST DUP3 ADD SWAP2 SWAP1 PUSH1 0x0 MSTORE PUSH1 0x20 PUSH1 0x0 KECCAK256 SWAP1 JUMPDEST DUP2 SLOAD DUP2 MSTORE SWAP1 PUSH1 0x1 ADD SWAP1 PUSH1 0x20 ADD DUP1 DUP4 GT PUSH2 0x404 JUMPI DUP3 SWAP1 SUB PUSH1 0x1F AND DUP3 ADD SWAP2 JUMPDEST POP POP POP PUSH1 0x2 DUP5 ADD SLOAD PUSH1 0x3 DUP6 ADD SLOAD PUSH1 0x4 DUP7 ADD SLOAD PUSH1 0x5 DUP8 ADD SLOAD PUSH1 0x6 DUP9 ADD SLOAD PUSH1 0x7 DUP10 ADD SLOAD PUSH1 0x8 SWAP1 SWAP10 ADD SLOAD SWAP8 SWAP9 SWAP5 SWAP8 SWAP4 SWAP7 POP PUSH1 0x1 PUSH1 0x1 PUSH1 0xA0 SHL SUB SWAP3 DUP4 AND SWAP6 POP SWAP2 AND SWAP3 SWAP1 SWAP2 PUSH1 0xFF AND DUP10 JUMP JUMPDEST PUSH1 0x0 PUSH2 0x477 PUSH1 0x5 DUP1 SLOAD PUSH1 0x1 ADD SWAP1 SSTORE JUMP JUMPDEST PUSH1 0x0 PUSH2 0x482 PUSH1 0x5 SLOAD SWAP1 JUMP JUMPDEST PUSH1 0x0 DUP2 DUP2 MSTORE PUSH1 0x6 PUSH1 0x20 SWAP1 DUP2 MSTORE PUSH1 0x40 SWAP1 SWAP2 KECCAK256 DUP3 DUP2 SSTORE DUP8 MLOAD SWAP3 SWAP4 POP SWAP2 PUSH2 0x4AE SWAP2 PUSH1 0x1 DUP5 ADD SWAP2 SWAP1 DUP10 ADD SWAP1 PUSH2 0x10C6 JUMP JUMPDEST POP PUSH1 0x0 PUSH1 0x2 DUP3 ADD SSTORE PUSH1 0x3 DUP2 ADD DUP6 SWAP1 SSTORE PUSH1 0x4 DUP2 ADD DUP1 SLOAD PUSH1 0x1 PUSH1 0x1 PUSH1 0xA0 SHL SUB NOT AND CALLER OR SWAP1 SSTORE TIMESTAMP PUSH1 0x6 DUP3 ADD DUP2 SWAP1 SSTORE PUSH2 0x4E4 SWAP1 DUP6 SWAP1 PUSH2 0x1452 JUMP JUMPDEST PUSH1 0x7 DUP3 ADD SSTORE PUSH1 0x8 DUP2 ADD DUP1 SLOAD PUSH1 0xFF NOT AND SWAP1 SSTORE PUSH1 0x5 ADD DUP1 SLOAD PUSH1 0x1 PUSH1 0x1 PUSH1 0xA0 SHL SUB NOT AND SWAP1 SSTORE SWAP5 SWAP4 POP POP POP POP JUMP JUMPDEST PUSH1 0x0 DUP2 DUP2 MSTORE PUSH1 0x6 PUSH1 0x20 DUP2 SWAP1 MSTORE PUSH1 0x40 DUP3 KECCAK256 PUSH1 0x4 DUP2 ADD SLOAD PUSH1 0x5 DUP3 ADD SLOAD SWAP3 DUP3 ADD SLOAD PUSH1 0x7 DUP4 ADD SLOAD PUSH1 0x1 SWAP1 SWAP4 ADD DUP1 SLOAD PUSH1 0x60 SWAP7 SWAP6 DUP7 SWAP6 DUP7 SWAP6 DUP7 SWAP6 PUSH1 0x1 PUSH1 0x1 PUSH1 0xA0 SHL SUB SWAP2 DUP3 AND SWAP5 SWAP2 SWAP1 SWAP4 AND SWAP3 SWAP2 SWAP1 DUP6 SWAP1 PUSH2 0x560 SWAP1 PUSH2 0x1401 JUMP JUMPDEST DUP1 PUSH1 0x1F ADD PUSH1 0x20 DUP1 SWAP2 DIV MUL PUSH1 0x20 ADD PUSH1 0x40 MLOAD SWAP1 DUP2 ADD PUSH1 0x40 MSTORE DUP1 SWAP3 SWAP2 SWAP1 DUP2 DUP2 MSTORE PUSH1 0x20 ADD DUP3 DUP1 SLOAD PUSH2 0x58C SWAP1 PUSH2 0x1401 JUMP JUMPDEST DUP1 ISZERO PUSH2 0x5D9 JUMPI DUP1 PUSH1 0x1F LT PUSH2 0x5AE JUMPI PUSH2 0x100 DUP1 DUP4 SLOAD DIV MUL DUP4 MSTORE SWAP2 PUSH1 0x20 ADD SWAP2 PUSH2 0x5D9 JUMP JUMPDEST DUP3 ADD SWAP2 SWAP1 PUSH1 0x0 MSTORE PUSH1 0x20 PUSH1 0x0 KECCAK256 SWAP1 JUMPDEST DUP2 SLOAD DUP2 MSTORE SWAP1 PUSH1 0x1 ADD SWAP1 PUSH1 0x20 ADD DUP1 DUP4 GT PUSH2 0x5BC JUMPI DUP3 SWAP1 SUB PUSH1 0x1F AND DUP3 ADD SWAP2 JUMPDEST POP POP POP POP POP SWAP5 POP SWAP5 POP SWAP5 POP SWAP5 POP SWAP5 POP SWAP5 POP SWAP2 SWAP4 SWAP6 SWAP1 SWAP3 SWAP5 POP JUMP JUMPDEST PUSH1 0x0 DUP1 SLOAD PUSH1 0x1 PUSH1 0x1 PUSH1 0xA0 SHL SUB AND CALLER EQ PUSH2 0x627 JUMPI PUSH1 0x40 MLOAD PUSH3 0x461BCD PUSH1 0xE5 SHL DUP2 MSTORE PUSH1 0x4 ADD PUSH2 0x61E SWAP1 PUSH2 0x146A JUMP JUMPDEST PUSH1 0x40 MLOAD DUP1 SWAP2 SUB SWAP1 REVERT JUMPDEST PUSH1 0x0 PUSH1 0x8 SLOAD GT PUSH2 0x679 JUMPI PUSH1 0x40 MLOAD PUSH3 0x461BCD PUSH1 0xE5 SHL DUP2 MSTORE PUSH1 0x20 PUSH1 0x4 DUP3 ADD MSTORE PUSH1 0x1E PUSH1 0x24 DUP3 ADD MSTORE PUSH32 0x5468657265206973206E6F206368616E676520746F20636F6C6C656374210000 PUSH1 0x44 DUP3 ADD MSTORE PUSH1 0x64 ADD PUSH2 0x61E JUMP JUMPDEST PUSH1 0x8 SLOAD PUSH1 0x40 MLOAD CALLER SWAP2 SWAP1 PUSH1 0x0 DUP2 DUP2 DUP2 DUP6 DUP8 GAS CALL SWAP3 POP POP POP RETURNDATASIZE DUP1 PUSH1 0x0 DUP2 EQ PUSH2 0x6BB JUMPI PUSH1 0x40 MLOAD SWAP2 POP PUSH1 0x1F NOT PUSH1 0x3F RETURNDATASIZE ADD AND DUP3 ADD PUSH1 0x40 MSTORE RETURNDATASIZE DUP3 MSTORE RETURNDATASIZE PUSH1 0x0 PUSH1 0x20 DUP5 ADD RETURNDATACOPY PUSH2 0x6C0 JUMP JUMPDEST PUSH1 0x60 SWAP2 POP JUMPDEST POP POP PUSH1 0x8 DUP1 SLOAD PUSH1 0x0 SWAP1 SWAP2 SSTORE SWAP2 POP POP SWAP1 JUMP JUMPDEST PUSH1 0x0 DUP2 DUP2 MSTORE PUSH1 0x6 PUSH1 0x20 DUP2 SWAP1 MSTORE PUSH1 0x40 DUP3 KECCAK256 SWAP1 DUP2 ADD SLOAD PUSH1 0x7 DUP3 ADD SLOAD PUSH1 0x2 DUP4 ADD SLOAD PUSH1 0x3 DUP5 ADD SLOAD PUSH1 0x1 SWAP1 SWAP5 ADD DUP1 SLOAD PUSH1 0x60 SWAP7 SWAP6 DUP7 SWAP6 DUP7 SWAP6 DUP7 SWAP6 SWAP2 SWAP4 SWAP1 SWAP3 SWAP1 DUP6 SWAP1 PUSH2 0x560 SWAP1 PUSH2 0x1401 JUMP JUMPDEST PUSH1 0x0 SLOAD PUSH1 0x1 PUSH1 0x1 PUSH1 0xA0 SHL SUB AND CALLER EQ PUSH2 0x73F JUMPI PUSH1 0x40 MLOAD PUSH3 0x461BCD PUSH1 0xE5 SHL DUP2 MSTORE PUSH1 0x4 ADD PUSH2 0x61E SWAP1 PUSH2 0x146A JUMP JUMPDEST PUSH2 0x749 PUSH1 0x0 PUSH2 0xD2E JUMP JUMPDEST JUMP JUMPDEST CALLER PUSH1 0x1 PUSH1 0x1 PUSH1 0xA0 SHL SUB PUSH32 0x0 AND EQ PUSH2 0x7C3 JUMPI PUSH1 0x40 MLOAD PUSH3 0x461BCD PUSH1 0xE5 SHL DUP2 MSTORE PUSH1 0x20 PUSH1 0x4 DUP3 ADD MSTORE PUSH1 0x1F PUSH1 0x24 DUP3 ADD MSTORE PUSH32 0x4F6E6C7920565246436F6F7264696E61746F722063616E2066756C66696C6C00 PUSH1 0x44 DUP3 ADD MSTORE PUSH1 0x64 ADD PUSH2 0x61E JUMP JUMPDEST PUSH2 0x7CD DUP3 DUP3 PUSH2 0xD7E JUMP JUMPDEST POP POP JUMP JUMPDEST PUSH1 0x0 PUSH2 0x7DC PUSH1 0x5 SLOAD SWAP1 JUMP JUMPDEST SWAP1 POP SWAP1 JUMP JUMPDEST PUSH1 0x0 DUP3 DUP2 MSTORE PUSH1 0x6 PUSH1 0x20 MSTORE PUSH1 0x40 DUP2 KECCAK256 SWAP1 PUSH1 0x8 DUP3 ADD SLOAD PUSH1 0xFF AND PUSH1 0x4 DUP2 GT ISZERO PUSH2 0x809 JUMPI PUSH2 0x809 PUSH2 0x11C5 JUMP JUMPDEST EQ PUSH2 0x848 JUMPI PUSH1 0x40 MLOAD PUSH3 0x461BCD PUSH1 0xE5 SHL DUP2 MSTORE PUSH1 0x20 PUSH1 0x4 DUP3 ADD MSTORE PUSH1 0xF PUSH1 0x24 DUP3 ADD MSTORE PUSH15 0x2930B3333632903737BA1037B832B7 PUSH1 0x89 SHL PUSH1 0x44 DUP3 ADD MSTORE PUSH1 0x64 ADD PUSH2 0x61E JUMP JUMPDEST DUP1 PUSH1 0x7 ADD SLOAD TIMESTAMP LT PUSH2 0x88E JUMPI PUSH1 0x40 MLOAD PUSH3 0x461BCD PUSH1 0xE5 SHL DUP2 MSTORE PUSH1 0x20 PUSH1 0x4 DUP3 ADD MSTORE PUSH1 0x10 PUSH1 0x24 DUP3 ADD MSTORE PUSH16 0x149859999B19481A5CC818DB1BDCD959 PUSH1 0x82 SHL PUSH1 0x44 DUP3 ADD MSTORE PUSH1 0x64 ADD PUSH2 0x61E JUMP JUMPDEST PUSH1 0x0 DUP3 GT PUSH2 0x8EA JUMPI PUSH1 0x40 MLOAD PUSH3 0x461BCD PUSH1 0xE5 SHL DUP2 MSTORE PUSH1 0x20 PUSH1 0x4 DUP3 ADD MSTORE PUSH1 0x23 PUSH1 0x24 DUP3 ADD MSTORE PUSH32 0x5469636B657420636F756E74206D757374206265206772656174657220746861 PUSH1 0x44 DUP3 ADD MSTORE PUSH3 0x6E203 PUSH1 0xEC SHL PUSH1 0x64 DUP3 ADD MSTORE PUSH1 0x84 ADD PUSH2 0x61E JUMP JUMPDEST DUP2 DUP2 PUSH1 0x3 ADD SLOAD PUSH2 0x8FA SWAP2 SWAP1 PUSH2 0x149F JUMP JUMPDEST CALLVALUE LT ISZERO PUSH2 0x95E JUMPI PUSH1 0x40 MLOAD PUSH3 0x461BCD PUSH1 0xE5 SHL DUP2 MSTORE PUSH1 0x20 PUSH1 0x4 DUP3 ADD MSTORE PUSH1 0x2C PUSH1 0x24 DUP3 ADD MSTORE PUSH32 0x5469636B65742070726963652069732067726561746572207468616E20746865 PUSH1 0x44 DUP3 ADD MSTORE PUSH12 0x8185B5BDD5B9D081CD95B9D PUSH1 0xA2 SHL PUSH1 0x64 DUP3 ADD MSTORE PUSH1 0x84 ADD PUSH2 0x61E JUMP JUMPDEST DUP2 DUP2 PUSH1 0x2 ADD PUSH1 0x0 DUP3 DUP3 SLOAD PUSH2 0x972 SWAP2 SWAP1 PUSH2 0x1452 JUMP JUMPDEST SWAP1 SWAP2 SSTORE POP POP CALLER PUSH1 0x0 SWAP1 DUP2 MSTORE PUSH1 0x9 DUP3 ADD PUSH1 0x20 MSTORE PUSH1 0x40 DUP2 KECCAK256 DUP1 SLOAD DUP5 SWAP3 SWAP1 PUSH2 0x998 SWAP1 DUP5 SWAP1 PUSH2 0x1452 JUMP JUMPDEST SWAP1 SWAP2 SSTORE POP POP PUSH1 0x3 DUP2 ADD SLOAD PUSH2 0x9AD SWAP1 DUP4 SWAP1 PUSH2 0x149F JUMP JUMPDEST PUSH2 0x9B7 SWAP1 CALLVALUE PUSH2 0x14BE JUMP JUMPDEST PUSH1 0x8 PUSH1 0x0 DUP3 DUP3 SLOAD PUSH2 0x9C8 SWAP2 SWAP1 PUSH2 0x1452 JUMP JUMPDEST SWAP1 SWAP2 SSTORE POP POP POP POP POP JUMP JUMPDEST PUSH1 0x0 DUP2 DUP2 MSTORE PUSH1 0x6 PUSH1 0x20 MSTORE PUSH1 0x40 SWAP1 KECCAK256 PUSH1 0x4 ADD SLOAD PUSH1 0x1 PUSH1 0x1 PUSH1 0xA0 SHL SUB AND CALLER EQ PUSH2 0xA4D JUMPI PUSH1 0x40 MLOAD PUSH3 0x461BCD PUSH1 0xE5 SHL DUP2 MSTORE PUSH1 0x20 PUSH1 0x4 DUP3 ADD MSTORE PUSH1 0x29 PUSH1 0x24 DUP3 ADD MSTORE PUSH32 0x4F6E6C79207468652062656E65666963696172792063616E20636C61696D2074 PUSH1 0x44 DUP3 ADD MSTORE PUSH9 0x686520726166666C65 PUSH1 0xB8 SHL PUSH1 0x64 DUP3 ADD MSTORE PUSH1 0x84 ADD PUSH2 0x61E JUMP JUMPDEST PUSH1 0x0 DUP2 DUP2 MSTORE PUSH1 0x6 PUSH1 0x20 MSTORE PUSH1 0x40 SWAP1 KECCAK256 PUSH1 0x7 ADD SLOAD TIMESTAMP LT ISZERO PUSH2 0xAAE JUMPI PUSH1 0x40 MLOAD PUSH3 0x461BCD PUSH1 0xE5 SHL DUP2 MSTORE PUSH1 0x20 PUSH1 0x4 DUP3 ADD MSTORE PUSH1 0x1D PUSH1 0x24 DUP3 ADD MSTORE PUSH32 0x54686520726166666C6520686173206E6F7420636C6F73656420796574000000 PUSH1 0x44 DUP3 ADD MSTORE PUSH1 0x64 ADD PUSH2 0x61E JUMP JUMPDEST PUSH1 0x0 DUP2 DUP2 MSTORE PUSH1 0x6 PUSH1 0x20 MSTORE PUSH1 0x40 SWAP1 KECCAK256 PUSH1 0x7 ADD SLOAD TIMESTAMP SWAP1 PUSH2 0xAD0 SWAP1 PUSH3 0x93A80 SWAP1 PUSH2 0x1452 JUMP JUMPDEST GT PUSH2 0xB32 JUMPI PUSH1 0x40 MLOAD PUSH3 0x461BCD PUSH1 0xE5 SHL DUP2 MSTORE PUSH1 0x20 PUSH1 0x4 DUP3 ADD MSTORE PUSH1 0x2C PUSH1 0x24 DUP3 ADD MSTORE PUSH32 0x54686520726166666C6520686173206578706972656420616E642063616E6E6F PUSH1 0x44 DUP3 ADD MSTORE PUSH12 0x1D0818994818DB185A5B5959 PUSH1 0xA2 SHL PUSH1 0x64 DUP3 ADD MSTORE PUSH1 0x84 ADD PUSH2 0x61E JUMP JUMPDEST PUSH1 0x3 SLOAD PUSH1 0x2 SLOAD PUSH1 0x40 MLOAD PUSH4 0x70A08231 PUSH1 0xE0 SHL DUP2 MSTORE ADDRESS PUSH1 0x4 DUP3 ADD MSTORE PUSH1 0x1 PUSH1 0x1 PUSH1 0xA0 SHL SUB SWAP1 SWAP2 AND SWAP1 PUSH4 0x70A08231 SWAP1 PUSH1 0x24 ADD PUSH1 0x20 PUSH1 0x40 MLOAD DUP1 DUP4 SUB DUP2 DUP7 GAS STATICCALL ISZERO DUP1 ISZERO PUSH2 0xB7D JUMPI RETURNDATASIZE PUSH1 0x0 DUP1 RETURNDATACOPY RETURNDATASIZE PUSH1 0x0 REVERT JUMPDEST POP POP POP POP PUSH1 0x40 MLOAD RETURNDATASIZE PUSH1 0x1F NOT PUSH1 0x1F DUP3 ADD AND DUP3 ADD DUP1 PUSH1 0x40 MSTORE POP DUP2 ADD SWAP1 PUSH2 0xBA1 SWAP2 SWAP1 PUSH2 0x14D5 JUMP JUMPDEST LT ISZERO PUSH2 0xC15 JUMPI PUSH1 0x40 MLOAD PUSH3 0x461BCD PUSH1 0xE5 SHL DUP2 MSTORE PUSH1 0x20 PUSH1 0x4 DUP3 ADD MSTORE PUSH1 0x3C PUSH1 0x24 DUP3 ADD MSTORE PUSH32 0x54686520636F6E7472616374206E6565647320746F2062652070616964206C69 PUSH1 0x44 DUP3 ADD MSTORE PUSH32 0x6E6B20746F6B656E20746F20636C61696D2074686520726166666C6500000000 PUSH1 0x64 DUP3 ADD MSTORE PUSH1 0x84 ADD PUSH2 0x61E JUMP JUMPDEST PUSH1 0x0 DUP2 DUP2 MSTORE PUSH1 0x6 PUSH1 0x20 MSTORE PUSH1 0x40 DUP2 KECCAK256 PUSH1 0x8 ADD DUP1 SLOAD PUSH1 0xFF NOT AND PUSH1 0x2 OR SWAP1 SSTORE PUSH1 0x4 SLOAD PUSH1 0x3 SLOAD PUSH2 0xC41 SWAP2 SWAP1 PUSH2 0xF43 JUMP JUMPDEST PUSH1 0x0 DUP2 DUP2 MSTORE PUSH1 0x7 PUSH1 0x20 MSTORE PUSH1 0x40 SWAP1 DUP2 SWAP1 KECCAK256 DUP5 SWAP1 SSTORE MLOAD SWAP1 SWAP2 POP PUSH32 0xE7E9D173875E49599C9DC06EA20FD1D8878525700B2711462F8379CCCDC637EB SWAP1 PUSH2 0xC87 SWAP1 DUP4 DUP2 MSTORE PUSH1 0x20 ADD SWAP1 JUMP JUMPDEST PUSH1 0x40 MLOAD DUP1 SWAP2 SUB SWAP1 LOG1 POP POP JUMP JUMPDEST PUSH1 0x0 SLOAD PUSH1 0x1 PUSH1 0x1 PUSH1 0xA0 SHL SUB AND CALLER EQ PUSH2 0xCBD JUMPI PUSH1 0x40 MLOAD PUSH3 0x461BCD PUSH1 0xE5 SHL DUP2 MSTORE PUSH1 0x4 ADD PUSH2 0x61E SWAP1 PUSH2 0x146A JUMP JUMPDEST PUSH1 0x1 PUSH1 0x1 PUSH1 0xA0 SHL SUB DUP2 AND PUSH2 0xD22 JUMPI PUSH1 0x40 MLOAD PUSH3 0x461BCD PUSH1 0xE5 SHL DUP2 MSTORE PUSH1 0x20 PUSH1 0x4 DUP3 ADD MSTORE PUSH1 0x26 PUSH1 0x24 DUP3 ADD MSTORE PUSH32 0x4F776E61626C653A206E6577206F776E657220697320746865207A65726F2061 PUSH1 0x44 DUP3 ADD MSTORE PUSH6 0x646472657373 PUSH1 0xD0 SHL PUSH1 0x64 DUP3 ADD MSTORE PUSH1 0x84 ADD PUSH2 0x61E JUMP JUMPDEST PUSH2 0xD2B DUP2 PUSH2 0xD2E JUMP JUMPDEST POP JUMP JUMPDEST PUSH1 0x0 DUP1 SLOAD PUSH1 0x1 PUSH1 0x1 PUSH1 0xA0 SHL SUB DUP4 DUP2 AND PUSH1 0x1 PUSH1 0x1 PUSH1 0xA0 SHL SUB NOT DUP4 AND DUP2 OR DUP5 SSTORE PUSH1 0x40 MLOAD SWAP2 SWAP1 SWAP3 AND SWAP3 DUP4 SWAP2 PUSH32 0x8BE0079C531659141344CD1FD0A4F28419497F9722A3DAAFE3B4186F6B6457E0 SWAP2 SWAP1 LOG3 POP POP JUMP JUMPDEST PUSH1 0x0 DUP3 DUP2 MSTORE PUSH1 0x7 PUSH1 0x20 MSTORE PUSH1 0x40 SWAP1 KECCAK256 SLOAD PUSH1 0x2 PUSH1 0x0 DUP3 DUP2 MSTORE PUSH1 0x6 PUSH1 0x20 MSTORE PUSH1 0x40 SWAP1 KECCAK256 PUSH1 0x8 ADD SLOAD PUSH1 0xFF AND PUSH1 0x4 DUP2 GT ISZERO PUSH2 0xDB5 JUMPI PUSH2 0xDB5 PUSH2 0x11C5 JUMP JUMPDEST EQ PUSH2 0xE19 JUMPI PUSH1 0x40 MLOAD PUSH3 0x461BCD PUSH1 0xE5 SHL DUP2 MSTORE PUSH1 0x20 PUSH1 0x4 DUP3 ADD MSTORE PUSH1 0x2E PUSH1 0x24 DUP3 ADD MSTORE PUSH32 0x54686520726166666C65206973206E6F7420696E207468652053656C65637469 PUSH1 0x44 DUP3 ADD MSTORE PUSH14 0x6E6757696E6E6572207374617465 PUSH1 0x90 SHL PUSH1 0x64 DUP3 ADD MSTORE PUSH1 0x84 ADD PUSH2 0x61E JUMP JUMPDEST PUSH1 0x0 DUP2 DUP2 MSTORE PUSH1 0x6 PUSH1 0x20 MSTORE PUSH1 0x40 DUP2 KECCAK256 PUSH1 0x8 DUP2 ADD DUP1 SLOAD PUSH1 0xFF NOT AND PUSH1 0x3 OR SWAP1 SSTORE PUSH1 0x2 ADD SLOAD PUSH2 0xE44 SWAP1 DUP5 PUSH2 0x14EE JUMP JUMPDEST SWAP1 POP PUSH2 0xE58 PUSH1 0x0 SLOAD PUSH1 0x1 PUSH1 0x1 PUSH1 0xA0 SHL SUB AND SWAP1 JUMP JUMPDEST PUSH1 0x0 DUP4 DUP2 MSTORE PUSH1 0x6 PUSH1 0x20 MSTORE PUSH1 0x40 SWAP1 KECCAK256 PUSH1 0x5 DUP2 ADD DUP1 SLOAD PUSH1 0x1 PUSH1 0x1 PUSH1 0xA0 SHL SUB NOT AND PUSH1 0x1 PUSH1 0x1 PUSH1 0xA0 SHL SUB SWAP4 DUP5 AND OR SWAP1 SSTORE PUSH1 0x4 DUP2 ADD SLOAD PUSH1 0x2 DUP3 ADD SLOAD PUSH1 0x3 SWAP1 SWAP3 ADD SLOAD SWAP3 AND SWAP2 PUSH2 0xEA1 SWAP2 SWAP1 PUSH2 0x149F JUMP JUMPDEST PUSH1 0x40 MLOAD PUSH1 0x0 DUP2 DUP2 DUP2 DUP6 DUP8 GAS CALL SWAP3 POP POP POP RETURNDATASIZE DUP1 PUSH1 0x0 DUP2 EQ PUSH2 0xEDD JUMPI PUSH1 0x40 MLOAD SWAP2 POP PUSH1 0x1F NOT PUSH1 0x3F RETURNDATASIZE ADD AND DUP3 ADD PUSH1 0x40 MSTORE RETURNDATASIZE DUP3 MSTORE RETURNDATASIZE PUSH1 0x0 PUSH1 0x20 DUP5 ADD RETURNDATACOPY PUSH2 0xEE2 JUMP JUMPDEST PUSH1 0x60 SWAP2 POP JUMPDEST POP POP POP PUSH1 0x0 DUP3 DUP2 MSTORE PUSH1 0x6 PUSH1 0x20 SWAP1 DUP2 MSTORE PUSH1 0x40 SWAP2 DUP3 SWAP1 KECCAK256 PUSH1 0x5 ADD SLOAD DUP3 MLOAD DUP6 DUP2 MSTORE PUSH1 0x1 PUSH1 0x1 PUSH1 0xA0 SHL SUB SWAP1 SWAP2 AND SWAP2 DUP2 ADD SWAP2 SWAP1 SWAP2 MSTORE PUSH32 0x3BC05D77C749538B04C637D624A0E50D28A1CF181657405D944D039DE39D9651 SWAP2 ADD PUSH1 0x40 MLOAD DUP1 SWAP2 SUB SWAP1 LOG1 POP POP POP POP JUMP JUMPDEST PUSH1 0x0 PUSH32 0x0 PUSH1 0x1 PUSH1 0x1 PUSH1 0xA0 SHL SUB AND PUSH4 0x4000AEA0 PUSH32 0x0 DUP5 DUP7 PUSH1 0x0 PUSH1 0x40 MLOAD PUSH1 0x20 ADD PUSH2 0xFB3 SWAP3 SWAP2 SWAP1 SWAP2 DUP3 MSTORE PUSH1 0x20 DUP3 ADD MSTORE PUSH1 0x40 ADD SWAP1 JUMP JUMPDEST PUSH1 0x40 MLOAD PUSH1 0x20 DUP2 DUP4 SUB SUB DUP2 MSTORE SWAP1 PUSH1 0x40 MSTORE PUSH1 0x40 MLOAD DUP5 PUSH4 0xFFFFFFFF AND PUSH1 0xE0 SHL DUP2 MSTORE PUSH1 0x4 ADD PUSH2 0xFE0 SWAP4 SWAP3 SWAP2 SWAP1 PUSH2 0x1510 JUMP JUMPDEST PUSH1 0x20 PUSH1 0x40 MLOAD DUP1 DUP4 SUB DUP2 PUSH1 0x0 DUP8 GAS CALL ISZERO DUP1 ISZERO PUSH2 0xFFF JUMPI RETURNDATASIZE PUSH1 0x0 DUP1 RETURNDATACOPY RETURNDATASIZE PUSH1 0x0 REVERT JUMPDEST POP POP POP POP PUSH1 0x40 MLOAD RETURNDATASIZE PUSH1 0x1F NOT PUSH1 0x1F DUP3 ADD AND DUP3 ADD DUP1 PUSH1 0x40 MSTORE POP DUP2 ADD SWAP1 PUSH2 0x1023 SWAP2 SWAP1 PUSH2 0x1540 JUMP JUMPDEST POP PUSH1 0x0 DUP4 DUP2 MSTORE PUSH1 0x1 PUSH1 0x20 DUP2 DUP2 MSTORE PUSH1 0x40 DUP1 DUP5 KECCAK256 SLOAD DUP2 MLOAD DUP1 DUP5 ADD DUP10 SWAP1 MSTORE DUP1 DUP4 ADD DUP7 SWAP1 MSTORE ADDRESS PUSH1 0x60 DUP3 ADD MSTORE PUSH1 0x80 DUP1 DUP3 ADD DUP4 SWAP1 MSTORE DUP4 MLOAD DUP1 DUP4 SUB SWAP1 SWAP2 ADD DUP2 MSTORE PUSH1 0xA0 SWAP1 SWAP2 ADD SWAP1 SWAP3 MSTORE DUP2 MLOAD SWAP2 DUP4 ADD SWAP2 SWAP1 SWAP2 KECCAK256 SWAP4 DUP8 SWAP1 MSTORE SWAP1 DUP3 SWAP1 MSTORE PUSH2 0x107E SWAP2 PUSH2 0x1452 JUMP JUMPDEST PUSH1 0x0 DUP6 DUP2 MSTORE PUSH1 0x1 PUSH1 0x20 MSTORE PUSH1 0x40 SWAP1 KECCAK256 SSTORE PUSH2 0x10BE DUP5 DUP3 PUSH1 0x40 DUP1 MLOAD PUSH1 0x20 DUP1 DUP3 ADD SWAP5 SWAP1 SWAP5 MSTORE DUP1 DUP3 ADD SWAP3 SWAP1 SWAP3 MSTORE DUP1 MLOAD DUP1 DUP4 SUB DUP3 ADD DUP2 MSTORE PUSH1 0x60 SWAP1 SWAP3 ADD SWAP1 MSTORE DUP1 MLOAD SWAP2 ADD KECCAK256 SWAP1 JUMP JUMPDEST SWAP5 SWAP4 POP POP POP POP JUMP JUMPDEST DUP3 DUP1 SLOAD PUSH2 0x10D2 SWAP1 PUSH2 0x1401 JUMP JUMPDEST SWAP1 PUSH1 0x0 MSTORE PUSH1 0x20 PUSH1 0x0 KECCAK256 SWAP1 PUSH1 0x1F ADD PUSH1 0x20 SWAP1 DIV DUP2 ADD SWAP3 DUP3 PUSH2 0x10F4 JUMPI PUSH1 0x0 DUP6 SSTORE PUSH2 0x113A JUMP JUMPDEST DUP3 PUSH1 0x1F LT PUSH2 0x110D JUMPI DUP1 MLOAD PUSH1 0xFF NOT AND DUP4 DUP1 ADD OR DUP6 SSTORE PUSH2 0x113A JUMP JUMPDEST DUP3 DUP1 ADD PUSH1 0x1 ADD DUP6 SSTORE DUP3 ISZERO PUSH2 0x113A JUMPI SWAP2 DUP3 ADD JUMPDEST DUP3 DUP2 GT ISZERO PUSH2 0x113A JUMPI DUP3 MLOAD DUP3 SSTORE SWAP2 PUSH1 0x20 ADD SWAP2 SWAP1 PUSH1 0x1 ADD SWAP1 PUSH2 0x111F JUMP JUMPDEST POP PUSH2 0x1146 SWAP3 SWAP2 POP PUSH2 0x114A JUMP JUMPDEST POP SWAP1 JUMP JUMPDEST JUMPDEST DUP1 DUP3 GT ISZERO PUSH2 0x1146 JUMPI PUSH1 0x0 DUP2 SSTORE PUSH1 0x1 ADD PUSH2 0x114B JUMP JUMPDEST PUSH1 0x0 PUSH1 0x20 DUP3 DUP5 SUB SLT ISZERO PUSH2 0x1171 JUMPI PUSH1 0x0 DUP1 REVERT JUMPDEST POP CALLDATALOAD SWAP2 SWAP1 POP JUMP JUMPDEST PUSH1 0x0 DUP2 MLOAD DUP1 DUP5 MSTORE PUSH1 0x0 JUMPDEST DUP2 DUP2 LT ISZERO PUSH2 0x119E JUMPI PUSH1 0x20 DUP2 DUP6 ADD DUP2 ADD MLOAD DUP7 DUP4 ADD DUP3 ADD MSTORE ADD PUSH2 0x1182 JUMP JUMPDEST DUP2 DUP2 GT ISZERO PUSH2 0x11B0 JUMPI PUSH1 0x0 PUSH1 0x20 DUP4 DUP8 ADD ADD MSTORE JUMPDEST POP PUSH1 0x1F ADD PUSH1 0x1F NOT AND SWAP3 SWAP1 SWAP3 ADD PUSH1 0x20 ADD SWAP3 SWAP2 POP POP JUMP JUMPDEST PUSH4 0x4E487B71 PUSH1 0xE0 SHL PUSH1 0x0 MSTORE PUSH1 0x21 PUSH1 0x4 MSTORE PUSH1 0x24 PUSH1 0x0 REVERT JUMPDEST PUSH1 0x0 PUSH2 0x120 DUP12 DUP4 MSTORE DUP1 PUSH1 0x20 DUP5 ADD MSTORE PUSH2 0x11F5 DUP2 DUP5 ADD DUP13 PUSH2 0x1178 JUMP JUMPDEST PUSH1 0x40 DUP5 ADD DUP12 SWAP1 MSTORE PUSH1 0x60 DUP5 ADD DUP11 SWAP1 MSTORE PUSH1 0x1 PUSH1 0x1 PUSH1 0xA0 SHL SUB DUP10 DUP2 AND PUSH1 0x80 DUP7 ADD MSTORE DUP9 AND PUSH1 0xA0 DUP6 ADD MSTORE PUSH1 0xC0 DUP5 ADD DUP8 SWAP1 MSTORE PUSH1 0xE0 DUP5 ADD DUP7 SWAP1 MSTORE SWAP2 POP POP PUSH1 0x5 DUP4 LT PUSH2 0x1249 JUMPI PUSH4 0x4E487B71 PUSH1 0xE0 SHL PUSH1 0x0 MSTORE PUSH1 0x21 PUSH1 0x4 MSTORE PUSH1 0x24 PUSH1 0x0 REVERT JUMPDEST DUP3 PUSH2 0x100 DUP4 ADD MSTORE SWAP11 SWAP10 POP POP POP POP POP POP POP POP POP POP JUMP JUMPDEST PUSH4 0x4E487B71 PUSH1 0xE0 SHL PUSH1 0x0 MSTORE PUSH1 0x41 PUSH1 0x4 MSTORE PUSH1 0x24 PUSH1 0x0 REVERT JUMPDEST PUSH1 0x0 DUP1 PUSH1 0x0 PUSH1 0x60 DUP5 DUP7 SUB SLT ISZERO PUSH2 0x1289 JUMPI PUSH1 0x0 DUP1 REVERT JUMPDEST DUP4 CALLDATALOAD PUSH8 0xFFFFFFFFFFFFFFFF DUP1 DUP3 GT ISZERO PUSH2 0x12A1 JUMPI PUSH1 0x0 DUP1 REVERT JUMPDEST DUP2 DUP7 ADD SWAP2 POP DUP7 PUSH1 0x1F DUP4 ADD SLT PUSH2 0x12B5 JUMPI PUSH1 0x0 DUP1 REVERT JUMPDEST DUP2 CALLDATALOAD DUP2 DUP2 GT ISZERO PUSH2 0x12C7 JUMPI PUSH2 0x12C7 PUSH2 0x125E JUMP JUMPDEST PUSH1 0x40 MLOAD PUSH1 0x1F DUP3 ADD PUSH1 0x1F NOT SWAP1 DUP2 AND PUSH1 0x3F ADD AND DUP2 ADD SWAP1 DUP4 DUP3 GT DUP2 DUP4 LT OR ISZERO PUSH2 0x12EF JUMPI PUSH2 0x12EF PUSH2 0x125E JUMP JUMPDEST DUP2 PUSH1 0x40 MSTORE DUP3 DUP2 MSTORE DUP10 PUSH1 0x20 DUP5 DUP8 ADD ADD GT ISZERO PUSH2 0x1308 JUMPI PUSH1 0x0 DUP1 REVERT JUMPDEST DUP3 PUSH1 0x20 DUP7 ADD PUSH1 0x20 DUP4 ADD CALLDATACOPY PUSH1 0x0 PUSH1 0x20 DUP5 DUP4 ADD ADD MSTORE DUP1 SWAP8 POP POP POP POP POP POP PUSH1 0x20 DUP5 ADD CALLDATALOAD SWAP2 POP PUSH1 0x40 DUP5 ADD CALLDATALOAD SWAP1 POP SWAP3 POP SWAP3 POP SWAP3 JUMP JUMPDEST PUSH1 0xA0 DUP2 MSTORE PUSH1 0x0 PUSH2 0x134B PUSH1 0xA0 DUP4 ADD DUP9 PUSH2 0x1178 JUMP JUMPDEST PUSH1 0x1 PUSH1 0x1 PUSH1 0xA0 SHL SUB SWAP7 DUP8 AND PUSH1 0x20 DUP5 ADD MSTORE SWAP5 SWAP1 SWAP6 AND PUSH1 0x40 DUP3 ADD MSTORE PUSH1 0x60 DUP2 ADD SWAP3 SWAP1 SWAP3 MSTORE PUSH1 0x80 SWAP1 SWAP2 ADD MSTORE SWAP3 SWAP2 POP POP JUMP JUMPDEST PUSH1 0xA0 DUP2 MSTORE PUSH1 0x0 PUSH2 0x138B PUSH1 0xA0 DUP4 ADD DUP9 PUSH2 0x1178 JUMP JUMPDEST SWAP1 POP DUP6 PUSH1 0x20 DUP4 ADD MSTORE DUP5 PUSH1 0x40 DUP4 ADD MSTORE DUP4 PUSH1 0x60 DUP4 ADD MSTORE DUP3 PUSH1 0x80 DUP4 ADD MSTORE SWAP7 SWAP6 POP POP POP POP POP POP JUMP JUMPDEST PUSH1 0x0 DUP1 PUSH1 0x40 DUP4 DUP6 SUB SLT ISZERO PUSH2 0x13C2 JUMPI PUSH1 0x0 DUP1 REVERT JUMPDEST POP POP DUP1 CALLDATALOAD SWAP3 PUSH1 0x20 SWAP1 SWAP2 ADD CALLDATALOAD SWAP2 POP JUMP JUMPDEST PUSH1 0x0 PUSH1 0x20 DUP3 DUP5 SUB SLT ISZERO PUSH2 0x13E3 JUMPI PUSH1 0x0 DUP1 REVERT JUMPDEST DUP2 CALLDATALOAD PUSH1 0x1 PUSH1 0x1 PUSH1 0xA0 SHL SUB DUP2 AND DUP2 EQ PUSH2 0x13FA JUMPI PUSH1 0x0 DUP1 REVERT JUMPDEST SWAP4 SWAP3 POP POP POP JUMP JUMPDEST PUSH1 0x1 DUP2 DUP2 SHR SWAP1 DUP3 AND DUP1 PUSH2 0x1415 JUMPI PUSH1 0x7F DUP3 AND SWAP2 POP JUMPDEST PUSH1 0x20 DUP3 LT DUP2 EQ ISZERO PUSH2 0x1436 JUMPI PUSH4 0x4E487B71 PUSH1 0xE0 SHL PUSH1 0x0 MSTORE PUSH1 0x22 PUSH1 0x4 MSTORE PUSH1 0x24 PUSH1 0x0 REVERT JUMPDEST POP SWAP2 SWAP1 POP JUMP JUMPDEST PUSH4 0x4E487B71 PUSH1 0xE0 SHL PUSH1 0x0 MSTORE PUSH1 0x11 PUSH1 0x4 MSTORE PUSH1 0x24 PUSH1 0x0 REVERT JUMPDEST PUSH1 0x0 DUP3 NOT DUP3 GT ISZERO PUSH2 0x1465 JUMPI PUSH2 0x1465 PUSH2 0x143C JUMP JUMPDEST POP ADD SWAP1 JUMP JUMPDEST PUSH1 0x20 DUP1 DUP3 MSTORE DUP2 DUP2 ADD MSTORE PUSH32 0x4F776E61626C653A2063616C6C6572206973206E6F7420746865206F776E6572 PUSH1 0x40 DUP3 ADD MSTORE PUSH1 0x60 ADD SWAP1 JUMP JUMPDEST PUSH1 0x0 DUP2 PUSH1 0x0 NOT DIV DUP4 GT DUP3 ISZERO ISZERO AND ISZERO PUSH2 0x14B9 JUMPI PUSH2 0x14B9 PUSH2 0x143C JUMP JUMPDEST POP MUL SWAP1 JUMP JUMPDEST PUSH1 0x0 DUP3 DUP3 LT ISZERO PUSH2 0x14D0 JUMPI PUSH2 0x14D0 PUSH2 0x143C JUMP JUMPDEST POP SUB SWAP1 JUMP JUMPDEST PUSH1 0x0 PUSH1 0x20 DUP3 DUP5 SUB SLT ISZERO PUSH2 0x14E7 JUMPI PUSH1 0x0 DUP1 REVERT JUMPDEST POP MLOAD SWAP2 SWAP1 POP JUMP JUMPDEST PUSH1 0x0 DUP3 PUSH2 0x150B JUMPI PUSH4 0x4E487B71 PUSH1 0xE0 SHL PUSH1 0x0 MSTORE PUSH1 0x12 PUSH1 0x4 MSTORE PUSH1 0x24 PUSH1 0x0 REVERT JUMPDEST POP MOD SWAP1 JUMP JUMPDEST PUSH1 0x1 DUP1 PUSH1 0xA0 SHL SUB DUP5 AND DUP2 MSTORE DUP3 PUSH1 0x20 DUP3 ADD MSTORE PUSH1 0x60 PUSH1 0x40 DUP3 ADD MSTORE PUSH1 0x0 PUSH2 0x1537 PUSH1 0x60 DUP4 ADD DUP5 PUSH2 0x1178 JUMP JUMPDEST SWAP6 SWAP5 POP POP POP POP POP JUMP JUMPDEST PUSH1 0x0 PUSH1 0x20 DUP3 DUP5 SUB SLT ISZERO PUSH2 0x1552 JUMPI PUSH1 0x0 DUP1 REVERT JUMPDEST DUP2 MLOAD DUP1 ISZERO ISZERO DUP2 EQ PUSH2 0x13FA JUMPI PUSH1 0x0 DUP1 REVERT INVALID LOG2 PUSH5 0x6970667358 0x22 SLT KECCAK256 EQ CALLDATASIZE 0x2B SWAP15 0x2C MOD 0xC5 0x4F SWAP15 0xA9 0x2C 0xB5 DUP12 0xAB SELFBALANCE PUSH15 0x18A4F33ADDBA380641F82149858350 CREATE PUSH5 0x736F6C6343 STOP ADDMOD EXP STOP CALLER ","sha1":"a1f44214d2edbcf23eb195ff9d6d8c8b589d6132","source":"// contracts/CharityRafflev0.1.sol\n// SPDX-License-Identifier: MIT\npragma solidity ^0.8.0;\n\nimport \"@openzeppelin/contracts/access/Ownable.sol\";\nimport \"@openzeppelin/contracts/utils/Counters.sol\";\nimport \"@chainlink/contracts/src/v0.8/dev/VRFConsumerBase.sol\";\nimport \"@openzeppelin/contracts/token/ERC20/IERC20.sol\";\n\ncontract CharityRaffle is Ownable, VRFConsumerBase {\n    using Counters for Counters.Counter;\n\n    address public linkTokenAddress;\n    uint256 public linkFee;\n    bytes32 public VRFKeyHash;\n    // A contstructor to deal with randomness\n    constructor(address _vrfCoordinator, address _linkTokenAddress, uint256 _linkFee, bytes32 _VRFKeyHash) VRFConsumerBase(_vrfCoordinator,_linkTokenAddress){\n        linkFee = _linkFee;\n        VRFKeyHash = _VRFKeyHash;\n        linkTokenAddress = _linkTokenAddress;\n    }\n\n    event RequestRandomness(bytes32 requestId);\n    event WinnerChosen(uint256 raffleId, address payable winner);\n\n    enum RaffleState {\n        Open,\n        Closed,\n        SelectingWinner,\n        Finished,\n        Expired \n    }\n    // NotStarted: The raffle has not yet begun\n    // Open: The raffle is open for entry\n    // Closed: The raffle is closed for entry\n    // SelectingWinner: The raffle is closed and the winner is being selected\n    // Finished: The raffle is finished and the winner has been selected, beneficiary has been paid\n    // Expired: The raffle has expired since the benificiary has not ended it\n\n    struct Raffle {\n        uint256 id; // unique identifier for the raffle\n        string name; // name of the raffle\n        uint256 ticketCount; // number of tickets bought for this raffle\n        uint256 ticketPrice; // in wei\n        address payable beneficiary; // address of the beneficiary\n        address payable winner; // address of the winner of the raffle, by default it's 0x0\n        uint256 startTime; // unix timestamp of the start of the raffle\n        uint256 endTime; // unix timestamp of the end of the raffle\n        RaffleState state; // state of the raffle\n        mapping(address => uint256) tickets; // mapping of address to number of tickets bought\n    }\n\n    // Some rules of how raffles work\n    // 1. Anyone can make a new raffle\n    // 2. Anyone can buy tickets for any open raffle, and this can be for multiple raffles\n    // 3. Tickets are only refundable if the raffle expires, this means that the beneficiary has not claimed the raffle a week after it's end\n    // 4. The beneficiary can only end the raffle after the end time\n    uint256 public constant expirationPeriod = 7 * 24 * 60 * 60; // 7 days in seconds\n\n    Counters.Counter public RaffleCount;\n    mapping(uint256 => Raffle) public Raffles; // mapping of raffle id to raffle data\n    mapping(bytes32 => uint256) public VRFRequestIdTORaffleId; // mapping of VRF request id to raffle id\n\n    // A value that keeps track of all the change givent to the contract\n    uint256 public change = 0;\n\n    function CreateRaffle(string memory _raffleName, uint256 _ticketPrice, uint256 _raffleLength) public returns(uint256 raffleId){\n        RaffleCount.increment();\n        uint256 _id = RaffleCount.current();\n        Raffle storage raffle = Raffles[_id]; \n        raffle.id = _id;\n        raffle.name = _raffleName;\n        raffle.ticketCount = 0;\n        raffle.ticketPrice = _ticketPrice;\n        raffle.beneficiary = payable(msg.sender);\n        raffle.startTime = block.timestamp;\n        raffle.endTime = block.timestamp + _raffleLength;\n        raffle.state = RaffleState.Open;\n        raffle.winner = payable(0x0);\n        return _id;\n    }\n\n    // Some reader functions for getting info about raffles\n    function GetRaffleInfo(uint256 _id) public view returns (string memory name, address payable beneficiary, address payable winner, uint256 startTime, uint256 endTime) {\n        return (Raffles[_id].name, Raffles[_id].beneficiary, Raffles[_id].winner, Raffles[_id].startTime, Raffles[_id].endTime);\n    }\n\n    function GetRaffleTicketInfo(uint256 _id) public view returns (string memory name, uint256 startTime, uint256 endTime, uint256 ticketCount, uint256 ticketPrice) {\n        return (Raffles[_id].name, Raffles[_id].startTime, Raffles[_id].endTime, Raffles[_id].ticketCount, Raffles[_id].ticketPrice);\n    }\n\n    function GetRaffleCount() public view returns (uint256) {\n        return RaffleCount.current();\n    }\n\n    function ClaimRaffle(uint256 _id) public{\n        require(msg.sender == Raffles[_id].beneficiary, \"Only the beneficiary can claim the raffle\");\n        require(block.timestamp >= Raffles[_id].endTime, \"The raffle has not closed yet\");\n        require(Raffles[_id].endTime + expirationPeriod > block.timestamp, \"The raffle has expired and cannot be claimed\");\n        require(IERC20(linkTokenAddress).balanceOf(address(this)) >=  linkFee, \"The contract needs to be paid link token to claim the raffle\");\n        Raffles[_id].state = RaffleState.SelectingWinner;\n        // Fire off the VRF to select the winner\n        bytes32 requestId = requestRandomness(VRFKeyHash, linkFee); // Return a bytes 32 which is the request ID\n        VRFRequestIdTORaffleId[requestId] = _id; // Map the request ID to the raffle ID\n        emit RequestRandomness(requestId);\n    }\n\n    // This is run by the VRF coordinator to finalize the winner\n    function fulfillRandomness(bytes32 _requestId, uint256 _randomness) internal override {\n        uint256 raffleId = VRFRequestIdTORaffleId[_requestId];\n        require(Raffles[raffleId].state == RaffleState.SelectingWinner, \"The raffle is not in the SelectingWinner state\");\n        require(_randomness >= 0, \"No randomness found\");\n        Raffles[raffleId].state = RaffleState.Finished;\n        uint256 winningTicketIndex = _randomness % Raffles[raffleId].ticketCount;\n        // Todo: Convert the winning ticket index to an address\n        // For now well just send it to the owner\n        Raffles[raffleId].winner = payable(owner());\n        // Send the raffle money to the beneficiary\n        payable(Raffles[raffleId].beneficiary).call{value: Raffles[raffleId].ticketPrice * Raffles[raffleId].ticketCount}(\"\");\n        emit WinnerChosen(raffleId, Raffles[raffleId].winner);\n    }\n\n    // A function to buy tickets for a raffle\n    function BuyTickets(uint256 raffleId, uint256 _ticketCount) public payable {\n        Raffle storage raffle = Raffles[raffleId];\n        require(raffle.state == RaffleState.Open, \"Raffle not open\");\n        require(block.timestamp < raffle.endTime, \"Raffle is closed\");\n        require(_ticketCount > 0, \"Ticket count must be greater than 0\");\n        require(msg.value >= raffle.ticketPrice * _ticketCount, \"Ticket price is greater than the amount sent\");\n        raffle.ticketCount += _ticketCount;\n        raffle.tickets[msg.sender] += _ticketCount;\n        change += msg.value - raffle.ticketPrice * _ticketCount;\n    }\n\n    // A function for the owner of the contract to collect all the change in the contract\n    function CollectChange() public onlyOwner returns (uint256){\n        require(change > 0, \"There is no change to collect!\");\n        payable(msg.sender).call{value: change}(\"\");\n        uint256 _change = change;\n        change = 0;\n        return _change;\n    }\n}","sourcePath":"contracts/CharityRaffle.sol","type":"contract","deployment":{"address":"0xCF46c40cd00E6fFdd305F242ded603Da2cD28300","chainid":"4","blockHeight":9867393}}